:1000000002030A4120B900C10B00220221D2BB0128
:100010000689828A83E0225002E722BBFE02E322A5
:1000200089828A83E49322BB010B89828A83F8E068
:10003000C828F0E822500327C722BBFE07F8E3C810
:1000400028F3E8228A838982E49322BB010CE582AB
:1000500029F582E5833AF583E0225006E92582F806
:10006000E622BBFE06E92582F8E222E58229F58236
:10007000E5833AF583E49322BB010689828A83F003
:10008000225002F722BBFE01F322F8BB010DE582EC
:1000900029F582E5833AF583E8F0225006E92582C6
:1000A000C8F622BBFE05E92582C8F222BC000BBEC1
:1000B0000029EF8DF084FFADF022E4CCF875F00854
:1000C000EF2FFFEE33FEEC33FCEE9DEC984005FC89
:1000D000EE9DFE0FD5F0E9E4CEFD22EDF8F5F0EE51
:1000E0008420D21CFEADF075F008EF2FFFED33FD3C
:1000F0004007985006D5F0F222C398FD0FD5F0EADC
:1001000022BB010A89828A83F0E5F0A3F02250061F
:10011000F709A7F01922BBFE06F3E5F009F319224F
:10012000E88FF0A4CC8BF0A42CFCE98EF0A42CFC7E
:100130008AF0EDA42CFCEA8EF0A4CDA8F08BF0A4FC
:100140002DCC3825F0FDE98FF0A42CCD35F0FCEB5B
:100150008EF0A4FEA9F0EB8FF0A4CFC5F02ECD3920
:10016000FEE43CFCEAA42DCE35F0FDE43CFC227517
:10017000F008758200EF2FFFEE33FECD33CDCC3388
:10018000CCC58233C5829BED9AEC99E58298400CF0
:10019000F582EE9BFEED9AFDEC99FC0FD5F0D6E4CE
:1001A000CEFBE4CDFAE4CCF9A88222B800C1B900B4
:1001B00059BA002DEC8BF084CFCECDFCE5F0CBF915
:1001C0007818EF2FFFEE33FEED33FDEC33FCEB330D
:1001D000FB10D703994004EB99FB0FD8E5E4F9FA3B
:1001E000227818EF2FFFEE33FEED33FDEC33FCC920
:1001F00033C910D7059BE99A4007EC9BFCE99AF9B3
:100200000FD8E0E4C9FAE4CCFB2275F010EF2FFF21
:10021000EE33FEED33FDCC33CCC833C810D7079B8B
:10022000EC9AE899400AED9BFDEC9AFCE899F80FEE
:10023000D5F0DAE4CDFBE4CCFAE4C8F922C3E49FBC
:10024000FFE49EFEE49DFDE49CFC22EB9FF5F0EABA
:100250009E42F0E99D42F0EC6480C864809845F0CD
:1002600022EB9FF5F0EA9E42F0E99D42F0E89C45C2
:10027000F022E8600FECC313FCED13FDEE13FEEF6C
:1002800013FFD8F122E8600FEFC333FFEE33FEED2A
:1002900033FDEC33FCD8F122E0FCA3E0FDA3E0FE4B
:1002A000A3E0FF22ECF0A3EDF0A3EEF0A3EFF02229
:1002B000A8828583F0D083D0821202C71202C712AF
:1002C00002C71202C7E473E493A3C583C5F0C583D4
:1002D000C8C582C8F0A3C583C5F0C583C8C582C898
:1002E00022E0FBA3E0FAA3E0F922F8E0FBA3A3E0FD
:1002F000F925F0F0E582158270021583E0FA38F0F6
:1003000022EBF0A3EAF0A3E9F02275817F75FF03E9
:10031000759E02120451021144020427900003E466
:100320007E019360F4A3FF543F30E509541FFEE4BF
:1003300093A360010ECF54E0B4E00EEFFAEEF9A300
:10034000A3A3A3DAFDD9FB80D654C025E0604B50AF
:1003500026E493A3F85407240CC8C333C4540F44B1
:1003600020C8834004F456800146F6DFE480B001E3
:1003700002040810204080E493A3FAE493A3F8E475
:1003800093A3C8C582C8CAC583CAF0A3C8C582C81A
:10039000CAC583CADFE9DEE78085E493A3F8E49366
:1003A000A34003F68001F208DFF402031FC2D5E880
:1003B00030E70FB2D5E4C39BFBE49AFAE499F9E481
:1003C00098F8EC30E717B2D51203E31201ABE4C39F
:1003D0009BFBE49AFAE499F9E498F880031201ABE4
:1003E00030D50DE4C39FFFE49EFEE49DFDE49CFC3C
:1003F00022787FE4F6D8FD9000007F007E10E4F0C4
:10040000A3DFFCDEFA904FFFA3E583C394204011E5
:10041000FEAF829020000E0FE48002F0A3DFFCDE2E
:10042000FA12045102031C2232EF541F900430735D
:1004300000000000000000000000000000000000BC
:1004400000000000000000000000000000000000AC
:1004500022E5FF54CF4490F5FF220104080C0F1051
:10046000161F20202020822D1C161311101042A4CC
:100470002948241212F8FEEFCE2FF87F10FFFFFF5D
:10048000BFFF6F818114C0FFFF15493C3B3B0B0B45
:100490000B0B162100FC3F1513030319050280C83E
:1004A0007F160B1C0E1208960A64B3BFA7080440FF
:1004B0006539484A49801944000004980040040006
:1004C0000DFA20000DDC7000000000020C00013F5E
:1004D0003F3F060606822D1C1613111010020B1941
:1004E000EF600775FF0253E6BF2275FF0243E64047
:1004F0002290207741E1E4F5FFAF9122E5F7132246
:1005080053FA7FE4F5FF758E02F53BF53C75380428
:10051800E50C5401F40454B8FFE50CC3136FF50C53
:10052800FF1204297F147E001214407FFF121F1E41
:100538007F017E00121440E4F5FF438E08E5DF5486
:1005480003ADDEF539EDF53A538EF7C3E50B953A71
:10055800F50BE50A9539F50A438E08E5DF5403AD36
:10056800DEF539EDF53A538EF7C3E50B953AF50B01
:10057800E50A9539F50A438E08E5DF5403ADDEF543
:1005880039EDF53A538EF7C3E50B953AF50BE50AC5
:100598009539F50A438E08E5DF5403ADDEF539EDEC
:1005A800F53A538EF7C3E50B953AF50BE50A9539FD
:1005B800F50A438E08E5DF5403ADDEF539EDF53A6B
:1005C800538EF7C3E50B953AF50BE50A9539F50A0D
:1005D800438E08E5DF5403ADDEF539EDF53A538E69
:1005E800F7C3E50B953AF50BE50A9539F50A438EFD
:1005F80008E5DF5403ADDEF539EDF53A538EF7C360
:10060800E50B953AF50BE50A9539F50A438E08E5A9
:10061800DF5403ADDEF539EDF53A538EF7C3E50B3C
:10062800953AF50BE50A9539F50A438E08E5DF5446
:1006380003ADDEF539EDF53A538EF7C3E50B953C7E
:10064800F50BE50A953BF50A438E08E5DF5403AD43
:10065800DEF539EDF53A538EF7C3E50B953CF50B0E
:10066800E50A953BF50A438E08E5DF5403ADDEF550
:1006780039EDF53A538EF7C3E50B953CF50BE50AD2
:10068800953BF50A438E08E5DF5403ADDEF539EDF9
:10069800F53A538EF7C3E50B953CF50BE50A953B08
:1006A800F50A438E08E5DF5403ADDEF539EDF53A7A
:1006B800538EF7C3E50B953CF50BE50A953BF50A18
:1006C800438E08E5DF5403ADDEF539EDF53A538E78
:1006D800F7C3E50B953CF50BE50A953BF50A438E08
:1006E80008E5DF5403ADDEF539EDF53A538EF7C36F
:1006F800E50B953CF50BE50A953BF50A438E08E5B5
:10070800DF5403ADDEF539EDF53A538EF7C3E50B4B
:10071800953CF50BE50A953BF50A438E08E5DF5451
:1007280003ADDEF539EDF53A538EF7E53A250BF5CD
:100738000BE539350AF50A438E08E5DF5403ADDECB
:10074800F539EDF53A538EF7E53A250BF50BE53912
:10075800350AF50A438E08E5DF5403ADDEF539EDB9
:10076800F53A538EF7E53A250BF50BE539350AF5D9
:100778000A438E08E5DF5403ADDEF539EDF53A534B
:100788008EF7E53A250BF50BE539350AF50A438E60
:1007980008E5DF5403ADDEF539EDF53A538EF7E59C
:1007A8003A250BF50BE539350AF50A438E08E5DFDE
:1007B8005403ADDEF539EDF53A538EF7E53A250BDE
:1007C800F50BE539350AF50A438E08E5DF5403AD24
:1007D800DEF539EDF53A538EF7E53A250BF50BE5DD
:1007E80039350AF50A438E08E5DF5403ADDEF539DD
:1007F800EDF53A538EF7E53A250BF50BE539350A51
:10080800F50AE50C5401F40454B8FFE50CC3136F62
:10081800F50CFF1204297F147E00121440E4FF1225
:100828001F1E7F017E00121440E4F5FF438E08E589
:10083800DF5403ADDEF539EDF53A538EF7E53A2589
:100848000BF50BE539350AF50A438E08E5DF540345
:10085800ADDEF539EDF53A538EF7E53A250BF50B94
:10086800E539350AF50A438E08E5DF5403ADDEF5B0
:1008780039EDF53A538EF7E53A250BF50BE53935A1
:100888000AF50A438E08E5DF5403ADDEF539EDF5C8
:100898003A538EF7E53A250BF50BE539350AF50A93
:1008A800438E08E5DF5403ADDEF539EDF53A538E96
:1008B800F7E53A250BF50BE539350AF50A438E08B5
:1008C800E5DF5403ADDEF539EDF53A538EF7E53A39
:1008D800250BF50BE539350AF50A438E08E5DF5493
:1008E80003ADDEF539EDF53A538EF7E53A250BF50C
:1008F8000BE539350AF50A438E08E5DF5403ADDE0A
:10090800F539EDF53A538EF7E53A250BF50BE53950
:10091800350AF50A438E08E5DF5403ADDEF539EDF7
:10092800F53A538EF7C3E50B953CF50BE50A953B75
:10093800F50A438E08E5DF5403ADDEF539EDF53AE7
:10094800538EF7C3E50B953CF50BE50A953BF50A85
:10095800438E08E5DF5403ADDEF539EDF53A538EE5
:10096800F7C3E50B953CF50BE50A953BF50A438E75
:1009780008E5DF5403ADDEF539EDF53A538EF7C3DC
:10098800E50B953CF50BE50A953BF50A438E08E522
:10099800DF5403ADDEF539EDF53A538EF7C3E50BB9
:1009A800953CF50BE50A953BF50A438E08E5DF54BF
:1009B80003ADDEF539EDF53A538EF7C3E50B953CFB
:1009C800F50BE50A953BF50A438E08E5DF5403ADC0
:1009D800DEF539EDF53A538EF7C3E50B953CF50B8B
:1009E800E50A953BF50A438E08E5DF5403ADDEF5CD
:1009F80039EDF53A538EF7C3E50B953CF50BE50A4F
:100A0800953BF50A438E08E5DF5403ADDEF539ED75
:100A1800F53A538EF7C3E50B953AF50BE50A953988
:100A2800F50A438E08E5DF5403ADDEF539EDF53AF6
:100A3800538EF7C3E50B953AF50BE50A9539F50A98
:100A4800438E08E5DF5403ADDEF539EDF53A538EF4
:100A5800F7C3E50B953AF50BE50A9539F50A438E88
:100A680008E5DF5403ADDEF539EDF53A538EF7C3EB
:100A7800E50B953AF50BE50A9539F50A438E08E535
:100A8800DF5403ADDEF539EDF53A538EF7C3E50BC8
:100A9800953AF50BE50A9539F50A438E08E5DF54D2
:100AA80003ADDEF539EDF53A538EF7C3E50B953A0C
:100AB800F50BE50A9539F50A438E08E5DF5403ADD1
:100AC800DEF539EDF53A538EF7C3E50B953AF50B9C
:100AD800E50A9539F50A438E08E5DF5403ADDEF5DE
:100AE80039EDF53A538EF7C3E50B953AF50BE50A60
:100AF8009539F50A1538E538D394004003020518EE
:100B08000508E508B51308E51325E0F513D322C356
:100B180022EF7011ED600775FF0143AE012275FFEA
:100B28000153AEFE22EFB40110ED600775FF0143DB
:100B3800AE022275FF0153AEFD2275FF02E5E630D5
:100B4800E2037F0322E5E630E3037F0022E5E63097
:100B5800E1037F0422E5E67F0530E0027F0122EF12
:100B680014600F146014240270188B8075FF018DB7
:100B7800FD228B9075FF018DC9228BA075FF018D19
:100B8800CA22AF038FB075FF01AF058FCB2290202B
:100B980074120301EF14601214601A2402702112F7
:100BA80004F1E58071DAE5FD801F1204F1E590712A
:100BB800DAE5C980141204F1E5A071DAE5CA800902
:100BC8001204F1E5B071DAE5CB020078E4F5FFAF85
:100BD800922212007875FF019020740202E175FFDD
:100BE80003E4F59122E5FA30E1FB75FC8075FF011D
:100BF80053D5EFE4F5FC75FC4071E6E5FC20E6FB17
:100C0800D322F0A20C920690205312029890202032
:100C18001202A4F1169020351202B0002DC6C0E4CD
:100C2800F5FFF5A490120DF0A3F09020307402F0B7
:100C380075FF03902030E0FFF595EF146013146002
:100C48001C24027027902020B154F10F90202C8092
:100C580016902024B154F10F90202D800A9020285E
:100C6800B154F10F90202EE0902039F0F1EC902053
:100C780039E070051221E4805290120DE004F090E2
:100C88002030F1D1902035B154902031F1F9C312C0
:100C98000261500A902031B154FFA31202A490209F
:100CA80039E0FF12198890202FE0FFA3E0FDA2068B
:100CB8009204121DA3A3B154F1B2902030E0FF12A8
:100CC8001DF5902030E0B147FFF165F1E360028146
:100CD800387402F075FF03902030F1B97017FF7E69
:100CE80004FDFC902035D1EA780112027290203080
:100CF800B134FFF165F1E370DB121770400343F480
:100D080020A20692051219E7902035B1542420FF3D
:100D1800EE344EF107E4FB7A04F9F8D1F5780112C4
:100D28000272C2031221D5121790D322E0FB25E0EC
:100D380025E02400F582E43412F5831202A4EB25A1
:100D4800E025E02400F582E43412F583E0FCA3E01A
:100D5800FDA3E0FEA3E0229020001202A490201040
:100D68007401F0E4A3F0F11675FF02E5E630E00E39
:100D78009020117401F0FB7A20791112162190202D
:100D88001B1202B0002DC6C0E4F5FFF5A490120EA8
:100D9800F09020127402F075FF03902012E0FFF526
:100DA80095EF14601314601C24027027902000B182
:100DB80054F1A190200C8016902004B154F1A19018
:100DC800200D800A902008B154F1A190200EE090E7
:100DD800201FF0F1EC90201FE070051221E48062E2
:100DE80090120DE004F0902012F1D1902011E070E3
:100DF8001A90201BB154902017F1F9C312026150C8
:100E08000A902017B154FFA31202A490201FE0FFFC
:100E180012198890200FE0FF902012E0FDA207929F
:100E280004121DA3902011E0700F902017B154F107
:100E3800B2902012E0FF121DF5902012E0B147FF9A
:100E4800F165F1DA6002A19F902011E07044A3746B
:100E580002F075FF03902012F1B9701290201BD197
:100E6800E57801120272902012B134FFF165F1DACF
:100E780070E090201BB1542420FFEE344EF107E4BB
:100E8800FB7A04F9F8D1F578011202729020131256
:100E980002A4121770400343F420A2079205121906
:100EA800E7902011E024FF9203902013B154FF1221
:100EB80021D51217C6E59B30E7FB1215A4F13B12AA
:100EC8001790F1C17A20791012170FB40103121686
:100ED800ED902010E0B40103D38001C322FF7E040B
:100EE800FDFCE0F8A3E0F9A3E0FAA3E0FB1201207F
:100EF800E47B7DFAF9F81201ABEF2401FFE43EFE32
:100F0800E43DFDE43CFC22FF9020310202A475FF81
:100F18000243E18071EDF1A853DB7F75FF0175D5C0
:100F2800027F14F13DF1C1F1A843DB8075FF01E4B4
:100F3800F5D5227FC87E00F14875FF0343918022D2
:100F480075FF03D3EF9402EE9400400874FE2FFF60
:100F580074FF3EFEEFF592EE540FF5912290209823
:100F68001202A475FF01902098A3E0FDA3A3E4FF5B
:100F7800FEE4FC78101202728FE1902098A3A3E09F
:100F8800FEA3E4FFE4FDFC78081202728FE29020D1
:100F980098A3A3A3E0FF8FE322FF9020170202A4E7
:100FA80075FF01438E1075FF0122FF902090020209
:100FB800A4E0F595E5F454072275FF03E59120E7D1
:100FC800FB227F3FFEF148E141E033333354F8F52B
:100FD800F422902012E0FF14F0EF22902030E0FF7E
:100FE80014F0EF2275FF0175E46575FF0175D647AA
:100FF80022FFE0F8A3E0F9A3E0FAA3E0FB229020A7
:1010080094EEF0A3EFF07B017A207996B173501437
:10101800902096E0FEA3E0FF902095E09F9020941A
:10102800E09E400B902094E0FEA3E0FF120F4822C0
:10103800E490207DF0FB7D02FF90207AF1B89020AB
:10104800807401F0C2087133717E5005E5FC20E61A
:10105800F77189BF0108E4F5FC75FC4080077189C8
:10106800BF0202D322D1E690207BE0FF121EB275A8
:10107800FF0153D5DF53FAFB90207AE0FFB1889047
:10108800207BE090207AB4080BE0120D472452121E
:101098000F048005E0120D47FF120F6590207CE0D9
:1010A800FFF1B275FF0175FF03759B04713375FC81
:1010B80042E5FC20E104717E40F490207DE0F0756B
:1010C800FF03E59B20E704717E40F4E59B20E70DD4
:1010D80075FF03759B1F120BEDD208804B712CD145
:1010E8002190207BE0FD90120EE05D701C90207A2C
:1010F800E0FF712C121C1C90120EE0FF90207BE088
:10110800FEEF4E90120EF0F190B1AA7B017A207991
:101118007EB173500FC390207FE0942090207EE032
:10112800940340E7712CF118120FC13008020146F0
:10113800902080E0B40103D38001C32275FF0275BB
:10114800E404E4F5E41203F1F1D375FF0253E6BFBA
:10115800900FFD74FFF0A3F0A37480F09020531259
:1011680002B0000D40309020571202B0000D403000
:1011780090205B1202B0000D40309020507402F0B5
:10118800E4A3F0A3F090205FF0D20CB1F2E4A3F056
:10119800A3120C0A113871031138711350FAE53291
:1011A8002402FF1313543F900FFDF09020531202B6
:1011B800B0000E1AF0B1F2902052E090202EF0907C
:1011C800205FE090202F120C0A113871031138713A
:1011D8001350FAE53224021313543F900FFEF0E542
:1011E8008954FC4401F589D2AFD2A9E4F58AF58C7B
:1011F800F50975FF015316EF8516FD531AEF851A89
:1012080080E5A030E3FBE5A020E3FBD28C75360037
:101218007537010537E537AE367002053614C394C5
:1012280020EE944E500CE5A030E3FBE5A030E3E35C
:1012380080F9E5A030E3FBE5A020E3FBC28C431A6C
:1012480010851A80900F00E58AF0A3E58CF0E50977
:101258002483A3F0AF8CEFFEAD8A7C00E42DFFEC75
:101268003ECF2404CF3400FEEF7803CEC313CE1351
:10127800D8F9F5358E34E509647C600EE509647D9E
:101288006008900FFF7480F08021D3E5359450E515
:101298003494004010E53594F0E53494005006E5A8
:1012A8003524608002E535900FFFF0900FFFE0FFD6
:1012B800D394144008EF94EB50037480F080FE75CB
:1012C8001302E4F515F508F50D751405F50AF50B87
:1012D800FD7F02F17E750C0122120508120508E552
:1012E80015C39514501212050850F41221908F3F1F
:1012F800AD3F7F02F17E80E7AF3F2251C751E11237
:101308000BEDE4F531F5327533042251C751E1EFA5
:101318002532F532E43531F531120BED1533E5336D
:10132800D39400227B017A207980227FE87E031102
:1013380006020F419020B6E5F4F0E0547FF5F47F03
:10134800827E007137717E5005E5FC20E6F7300992
:10135800089020B6E04480F5F47133717E5005E5BD
:10136800FC20E6F775FF01E5D520E702C322E5F486
:10137800D330E601C32275FF03E591C330E701D3FB
:10138800227FFA120F3DE5FC30E604717E40F7E556
:10139800FC30E6037F032275FF01E5D530E6037FC5
:1013A8000222E5D57F0030E7027F01229020A0EFDE
:1013B800F0A3D1FC75FF017189EF64016002C322BB
:1013C800E5F430E602C3227FE87E03120FCD912AAE
:1013D800400122C209713C9020A0E0FFB18853F47B
:1013E800DFD209713C7F787E00914075FF0153E49C
:1013F800BFE5E430E7FBF1057F8AB1C530E605B10A
:101408005BE4800775FF01B15BE5D912007875FFD1
:101418000143E440F176400343F420912A4001223D
:10142800D322E5F730E50FE5F754C07004717E402C
:10143800F1120BE6C322D322CDEFCDCCEECCB167AF
:10144800AB94EF4BD1F4CBEFCBFAE59130E71DB17C
:101458006AA994E9F582EF4582FFEB2DF582EA3C13
:10146800F583C3EF9582E5F0958340DEE59120E7AB
:101478000CCEECCECFEDCF120FCD120FC12275FFDF
:1014880001E5D520E702C322C20AB133200002A138
:101498002553F4DF9020AEE0FFB188D1ED3001058F
:1014A80043F440800353F4BFE4F5FF53F5F0902074
:1014B800AFE0FAA3E0FBEA42F5EBF5F6D20AB13366
:1014C800120F3BE4F5FFE59320E604717E40F4300B
:1014D8000157E5F430E3047D288010E5F430E20498
:1014E8007D288007E5F430E1027D28120BE67F288D
:1014F800120F3D717E40FC7F78120F3D717E50299E
:10150800B15450F8B1EDEFC39D50F1B15450EDE531
:10151800F720E5E8C20AB133120BE680DF53F4BFC7
:10152800F176400543F420D1E6D322AFF4EF547F9F
:10153800F5F4300A05EF4480F5F475FF01E5D52090
:10154800E702C322E5F4D330E601C32275FF01E5C3
:10155800E433229020A1E0FBA3E0FAA3E0F922758E
:10156800FF03AF93EF75F010A4FF22B167AD94EFBE
:101578004DD1F48FF0120101E591C330E701D32278
:1015880075FF01E5D530E602C322E4F5FF439A80F2
:10159800EF120FD2E4F5FF539A7FD322E4F5FF75DB
:1015A8008EC8E4F5FF75C2E17F1EB1C530E707E4D8
:1015B800F5FF75C2A122E4F5FF75C28122FE9140B4
:1015C80090120EE022E4FFE5F754C0600280167521
:1015D800FF01E5D530E30DB15450F4B1EDEF60EF04
:1015E800B15450EB22F105AFD9229020571202983E
:1015F8009020241202A490205B12029890202812B6
:1016080002A4902050E090202CF0902051E09020EF
:101618002DF0227B017A2079AB9020A8D1FC7F01A4
:101628007C127D00E4FEED2EF582E43CF583E02F8C
:10163800FF0EEEB412F0901212E06F60099020A82D
:10164800B15EE4120078229020AB7401F0E490209F
:10165800ADF0E5F454077002C322E5FA30E1FB75FA
:10166800FF01E5D530E702D322D1E6E5D530E61C07
:1016780075FF019020ACE5DAF0E4F5DAD11B75FFCF
:1016880001E5D630E3FB9020AD7401F0F1C6E59B8F
:1016980030E7FBE4FB75FF038B95120D46FF120F35
:1016A800650BEBB403EF75FF03759580B1A490202B
:1016B800ADE0700A7FC8120FCCD11B120FC17A207F
:1016C80079ABF10FB40102D1ED75FF019020ACE0C8
:1016D800F5DA9020ABE0B40103D38001C32275FF93
:1016E8000153D8EF2275FF0143D8102224FBFFE5F0
:1016F800F034FF22EBF0A3EAF0A3E9F02275FF0132
:10170800E4F5EA75EAFF227B01F11890120DE02258
:10171800C20275FF03759B1F75FF0390120EE0FF51
:1017280020E71BE59A540FC394024012EF4480F05F
:10173800E4F5FF75C2A143FC0475FF03D202E5FC82
:1017480030E609E59A540FC3940540CCE5FC30E631
:1017580011E412007875FC80F5FC75FC40E5FC206E
:10176800E6FB300202F1902275FF03759580901216
:101778000DE0D3940122EF24FE700CE4F5FF75CE42
:1017880011F5FFAF058FCF229012127401F07E126F
:101798007F00E4FDEF2DF582E43EF583E0FC901236
:1017A80012E02CF00DEDB412EB2275FF018FDA2256
:1017B800EFF0A3EDF0A3EBF02290120F80F275FF8B
:1017C80003759B0475FC4175FF0322E4F51AF51BAC
:1017D800F51CF51D75FF0185FD1675FF0185C917F7
:1017E80075FF0185CA1875FF0185CB192290203A2B
:1017F8001202A4E4F5FF75BB0575BB8575FF01757D
:10180800D502200309120FCA120FC11215AA75FFBB
:101818000143D52030030201C4E4F5FF538EF7439A
:101828008E077D04E4F5FF8DBCF5FF43B102E5B1F9
:1018380030E2FBE4F5FFAFDFEFFEACDEECFBEBFFE5
:10184800ED25E02438F582E43420F583EEF0A3EFAB
:10185800F0E4F5FFF5FF53B1FD0DEDB40CC6902093
:101868003A120D54FF7809120272A3EEF0A3EFF0BA
:10187800E4FDED25E02442F582E43420F583E0C35D
:1018880013FAA3E013FB11DE11EB2BFFEE3AFE1166
:10189800DEEEF0A3EFF0ED240490120CF0EDC3940B
:1018A800075019CFEDCF0DEF11DFE0FEA3E0FFC326
:1018B80090203FE09F90203EE09E50B6E4F5FF75F3
:1018C8008EC8F5FF90120CE0F5BCE4F5FF75BB80FF
:1018D80075FF01F5D522ED25E02440F582E434209A
:1018E800F58322E0C313FEA3E013229020A4EEF0B8
:1018F800A31217B83171AC00AD01AE02AF03C00638
:10190800C0079020A411EBFBAA06E4F9F8D007D091
:1019180006D312024B7E0050047F0180027F00C074
:1019280006C0073171D0E02FFFD0E03E9020A4F030
:10193800A3EFF053ECFC9020A4E0FCA3E0FDEC54F2
:101948000342EC75FF02EDF5AF75ED0275ED04A3EA
:10195800E0600543EC08800353ECF79020A7E060B3
:101968000443EC042253ECFB229020A4E0FEA3E005
:10197800FBAA06E4F9F87F807E387D01FC0203ADFE
:10198800EF30E00E43F401E4F5FF43A404F5FF75DE
:101998009624EF30E10E43F401E4F5FF43A408F583
:1019A800FF759624EF30E20943F402E4F5FF7596DB
:1019B8001EEF30E30943F404E4F5FF75961075FF54
:1019C80001EF5403600475D7122275D72D22E4F570
:1019D800FF7584E6F5FF439404F5FF75981422E437
:1019E800F5FF75933F75FF03759A4031D6E4F5FF0F
:1019F800759C93F5FF75A1A3F5FF758531F5FF7506
:101A08008628E5FA54304480F5FA75FF0175E74AEF
:101A180075FF0275DF4975FF0143D30475FF015354
:101A2800D367E4F5FF53E6BF75FF0175D825F5FFC9
:101A380075B503F5FF75B215F5FF75BA02F5FF75B3
:101A4800AFB3F5FF75CD0AF5FF75CB08F5FF75CA7D
:101A580012F5FF75BF0EF5FF75CC96F5FFF5BDF5D0
:101A6800FF75C281F5FF75AEE1F5FF75DA55F5FF33
:101A780075F580F5FF75E903F5FF75E933F5FF7531
:101A8800972A75FF01759B42759CA4759D29759EC3
:101A980048759F2475A11275A312759AF820050C34
:101AA800F5FF43968090120EE04440F022902060AB
:101AB8001216FC9020661202B00000000190206A05
:101AC8007401F0F5FFE5D554C0700491075002C3C6
:101AD80022E4F5FF53967F75FF0175D504120FCAEE
:101AE800120FC175FF0143D508E4F5FF5394FBF5C8
:101AF800FF53847FF5FF7598FF902064E5F4F07537
:101B0800F49C75FF01A3E5E4F075E4257B017A20D8
:101B1800796A12162190206AE06401600261E6F594
:101B2800FF9020637414F0902066120D54FF780122
:101B38001202859020661202A4E5A730E1FB43A7B4
:101B480002902066120D54FFE5A730E005E47B0102
:101B58008002E4FBFAF9F8EF4BFFEE4AFEED49FD8F
:101B6800EC48FC9020661202A4902063E014F07008
:101B7800B6902066120D54FF78101202727B6D7AAF
:101B88004E79C67841120120EF2439FFEE34301225
:101B98000F07E4FBFA7901F81201ABEE547FFEE47B
:101BA800FDFC910F902066120D54FFEB6FFFEA6E5B
:101BB800FEE8CDEFCDCCEECCECFF90206012155EA8
:101BC800EF12007890206012155E900001ED12006F
:101BD8008A90120EE030E606E4F5FF75968075FFF0
:101BE80001E4F5D5902064E0F5F475FF01A3E0F574
:101BF800E431D690206AE0B40103D38001C322E522
:101C0800F4C330E701D322C8ECC8C9EDC9CAEECA8B
:101C1800CBEFCB2290209CEDF0901210E0FEF46008
:101C280006A3E0FDB4FF0C90209E7418F0A3741373
:101C3800F0800890209EEEF0A3EDF012000E6401F3
:101C48006002A17590209CE0FE64086004EEB40474
:101C58000890209D7428F0800690209D743AF0EF3B
:101C6800120D47FF12023DE4B17EEF24D8FFEE3497
:101C78003FFEED3493FDEC3416FC7B007A8079034B
:101C880078001203AD910F90209FE0FF90209EE016
:101C9800C39FB176ECC0E0EDC0E0EEC0E0EFC0E07D
:101CA80090209FE0FFE4FCFDFEB17ED0E0FBD0E099
:101CB800FAD0E0F9D0E0F8EB2FFBEA3EFAE93DF97B
:101CC800E83CF890209DE0B176EF2454FFEE340B09
:101CD800120F07E47BA87A16F9F81203ADCBEFCB05
:101CE80090209CE014606114601B24FE600C24FCAE
:101CF800707BE4F5FF75CE318006E4F5FF75CE21E3
:101D0800F5FF8BCF22E4FAE4F5FFEA2440F5CEE4B0
:101D1800F5FFEAFFC374079FFFE49400FE74D52F14
:101D2800F58274043EF583E4B186C39DF5CFE4F5EE
:101D3800FFEA2448F5CEE4F5FFEA9004D5B1862DF4
:101D4800F5CF0AEAB408C022E4F5FF75CE01F5FF25
:101D58008BCFF5FF75CE0EF5FFEB25E0F5CFE4F55B
:101D6800FF75CE0FF5FFEB75F003A4F5CF22FFE466
:101D7800FCFDFE0201207B64FAF9F802012093259C
:101D8800E0FDE433FCEB75F010A4FFAEF01200ACFC
:101D9800CDEFCDEBFFE4C313EF1322CCEFCCCFEDA7
:101DA800CF74017E00C8EFC8088005C333CE33CE98
:101DB800D8F9FFCDECCDEF5D601B30041875FF013D
:101DC80075DCAD75FF0175DDCDE4F5FF759A74F529
:101DD800FF7594842275FF0175DC5375FF0175DD6D
:101DE80033E4F5FF759A14F5FF7594042290208F5B
:101DF800EFF0E4A3120EE5780112027290208FE052
:101E0800FBD1781202A490120FE0FF64806060EFAB
:101E1800C3947F502BEBD178C083C082120D54FF3E
:101E2800EFC0E090120FE025E025E0FBD0E0FFC313
:101E3800EF9BFFEE9400FEED9400FDEC94008027EC
:101E480090208FE0D178C083C082120FFA90120FD1
:101E5800E0F40425E025E0FFE4FCFDFEEB2FFFEEB7
:101E68003AFEED39FDEC38FCD082D0831202A42270
:101E780025E025E02400F582E43412F58322E5FA12
:101E88005430FFBF30037F0822E5FA5430FFBF20EB
:101E9800037F0422E5FA5430FFBF10037F0222E5D6
:101EA800FA54307F0070027F012275FF01E5D530BA
:101EB800E602C32253FACFEFB4080543FA30801282
:101EC800EFB4040543FA208009EFB4020543FA1081
:101ED8008000D322E5F45418131313541FFF22E58E
:101EE800F75406FFBF06037F0822E5F75406FFBF35
:101EF80004037F0422E5F75406FFBF02037F022292
:101F08007F0122E5F720E008E5F754C070F5FF22CD
:101F180043F701AFF92275FF01E5D520E602C32298
:101F2800E5FA540360FA75FF018FC3D322CEEFCED2
:101F380075FF01E5D520E602C32243FA04E4FDED6E
:101F4800C39E50077F55F11E0D80F4E5FA5430709A
:101F5800047F0F80027FF0F11ED322E5F754E024BE
:101F6800FF22E5F754C024FF22EF600775FF024304
:101F7800E6102275FF0253E6EF2275ED042275ED97
:101F88000222E5ED30E2FB75ED04AFEF22AFEF2260
:101F98008FEF22FFF1BAE5ED20E0FB8FEF229020D2
:101FA800B8EFF0E0C4540FF19B9020B8E0FFF1BA0D
:101FB80080E4EF540FFFD39409EF50042430FF223C
:101FC8002437FF229020B7EFF075F00A84F19B9038
:101FD80020B7E075F00A84AFF0F1BA80B97F0DF14F
:101FE8009E7F0A80B1EF600443EC042253ECFB228D
:101FF800EF600443EC082253ECF722E5ED5402FFAE
:1020080022E5ED5404FF22E5ED5401FF22902081E2
:10201800120301902087E0C4540F114211341200BA
:102028008A902087E01142113402008AFF902081B3
:102038001202E18F82758300E422FF121FBA9020FA
:10204800841202E17401120027FE9020811202E13D
:102058008E82758300EF12008A9020841202E17448
:102068000102002790208812030190208EE0FF9043
:10207800208B1164FE9020881194EF12008A902022
:102088008B1164FF902088113802008A1202E18EB9
:10209800827583002211E7121FE5E4902072F09008
:1020A8002071E0FFA3E0FEC39F502890206E11949A
:1020B80012004BFF121FA6902072E0540FFFBF0FB3
:1020C80005121FE580057F20121F9E902072E004F4
:1020D800F080CC902072E0540F6003121FE522902C
:1020E80020B11203019020B11202E112000E601318
:1020F8009020B1E475F0011202EA12000EFF121FDF
:102108009E80E2229020B4EEF0A3EFF09020B4E09D
:10211800FF121FA69020B4A3E0FF021FA6EF312CE8
:10212800F0020000901216F09020B922901216E0EA
:10213800FFF460059020B9EFF074FF312CE0FF2226
:10214800901216E0FE64069020B96004EFF0800853
:10215800EEF090121674FFF09020B9E0FF22E4F53B
:102168001E740D251EF8E625E0F51F051EE51FC3A4
:1021780013F51FE51E6515600C740D251EF8E62580
:102188001FF51F80E6AF1F220515AD0BAC0AE5153C
:10219800B40109ED25E0FDEC33FC8019E51524FEBA
:1021A800F53EE53ED39400400CECA2E713FCED139A
:1021B800FD153E80ED3166AB07ED2480E43CFFEB76
:1021C8002FFF740D2515F8A607220509321217F5F9
:1021D800E4F5FFE5BD54F84404F5BD22F5FFF59696
:0A21E80075FF0175D70975F4182280
:00000001FF
